{
  "contractName": "mortal",
  "abi": [
    {
      "inputs": [],
      "name": "destroy",
      "outputs": [],
      "stateMutability": "nonpayable",
      "type": "function"
    }
  ],
  "bytecode": "0x608060405234801561001057600080fd5b50336000806101000a81548173ffffffffffffffffffffffffffffffffffffffff021916908373ffffffffffffffffffffffffffffffffffffffff1602179055506101da806100606000396000f3fe608060405234801561001057600080fd5b506004361061002b5760003560e01c806383197ef014610030575b600080fd5b61003861003a565b005b60008054906101000a900473ffffffffffffffffffffffffffffffffffffffff1673ffffffffffffffffffffffffffffffffffffffff163373ffffffffffffffffffffffffffffffffffffffff16146100c8576040517f08c379a00000000000000000000000000000000000000000000000000000000081526004016100bf90610184565b60405180910390fd5b60008054906101000a900473ffffffffffffffffffffffffffffffffffffffff1673ffffffffffffffffffffffffffffffffffffffff16ff5b600082825260208201905092915050565b7f4f6e6c792074686520636f6e7472616374206f776e65722063616e2063616c6c60008201527f20746869732066756e6374696f6e000000000000000000000000000000000000602082015250565b600061016e602e83610101565b915061017982610112565b604082019050919050565b6000602082019050818103600083015261019d81610161565b905091905056fea2646970667358221220167c4df7752f57af50a572260f1886b945d2a2e237de3ac3d91da290c41a9a5064736f6c634300080b0033",
  "immutableReferences": {},
  "source": "// Version of Solidity compiler this program was written for\npragma solidity ^0.8.11;\n\ncontract owned {\n\taddress owner;\n\t// Contract constructor: set owner\n\tconstructor() {\n\t\towner = payable(msg.sender);\n\t}\n\t// Access control modifier\n\tmodifier onlyOwner {\n\t    require(msg.sender == owner, \"Only the contract owner can call this function\");\n\t    _;\n\t}\n}\n\ncontract mortal is owned {\n\t// Contract destructor\n\tfunction destroy() public onlyOwner {\n\t\tselfdestruct(payable(owner));\n\t}\n}\n\ncontract Faucet is mortal {\n\tevent Withdrawal(address indexed to, uint amount);\n\tevent Deposit(address indexed from, uint amount);\n\n    // Give out ether to anyone who asks\n    function withdraw(uint withdraw_amount) public {\n        // Limit withdrawal amount\n\t\trequire(withdraw_amount <= 0.1 ether);\n\t\trequire(payable(this).balance >= withdraw_amount, //수정함\n\t\t\t\"Insufficient balance in faucet for withdrawal request\");\n        // Send the amount to the address that requested it\n        payable(msg.sender).transfer(withdraw_amount);\n\t\temit Withdrawal(msg.sender, withdraw_amount);\n    }\n    // Accept any incoming amount\n    receive () external payable { //수정함\n\t\temit Deposit(msg.sender, msg.value);\n\t}\n}\n",
  "sourcePath": "/Users/woojinjeong/Documents/GitHub/ethereumbook-v-0.8.11-/code_v/truffle/FaucetEvents/contracts/Faucet.sol",
  "compiler": {
    "name": "solc",
    "version": "0.8.11+commit.d7f03943.Emscripten.clang"
  },
  "schemaVersion": "3.4.4",
  "updatedAt": "2022-02-16T10:52:50.373Z",
  "devdoc": {
    "kind": "dev",
    "methods": {},
    "version": 1
  },
  "userdoc": {
    "kind": "user",
    "methods": {},
    "version": 1
  }
}