{
  "contractName": "Faucet",
  "abi": [
    {
      "anonymous": false,
      "inputs": [
        {
          "indexed": true,
          "internalType": "address",
          "name": "from",
          "type": "address"
        },
        {
          "indexed": false,
          "internalType": "uint256",
          "name": "amount",
          "type": "uint256"
        }
      ],
      "name": "Deposit",
      "type": "event"
    },
    {
      "anonymous": false,
      "inputs": [
        {
          "indexed": true,
          "internalType": "address",
          "name": "to",
          "type": "address"
        },
        {
          "indexed": false,
          "internalType": "uint256",
          "name": "amount",
          "type": "uint256"
        }
      ],
      "name": "Withdrawal",
      "type": "event"
    },
    {
      "inputs": [],
      "name": "destroy",
      "outputs": [],
      "stateMutability": "nonpayable",
      "type": "function"
    },
    {
      "stateMutability": "payable",
      "type": "receive",
      "payable": true
    },
    {
      "inputs": [
        {
          "internalType": "uint256",
          "name": "withdraw_amount",
          "type": "uint256"
        }
      ],
      "name": "withdraw",
      "outputs": [],
      "stateMutability": "nonpayable",
      "type": "function"
    }
  ],
  "bytecode": "0x608060405234801561001057600080fd5b50336000806101000a81548173ffffffffffffffffffffffffffffffffffffffff021916908373ffffffffffffffffffffffffffffffffffffffff16021790555061047b806100606000396000f3fe60806040526004361061002d5760003560e01c80632e1a7d4d1461008757806383197ef0146100b057610082565b36610082573373ffffffffffffffffffffffffffffffffffffffff167fe1fffcc4923d04b559f4d29a8bfc6cda04eb5b0d3c460751c2402c5c5cc9109c346040516100789190610297565b60405180910390a2005b600080fd5b34801561009357600080fd5b506100ae60048036038101906100a991906102e3565b6100c7565b005b3480156100bc57600080fd5b506100c56101b7565b005b67016345785d8a00008111156100dc57600080fd5b8047101561011f576040517f08c379a000000000000000000000000000000000000000000000000000000000815260040161011690610393565b60405180910390fd5b3373ffffffffffffffffffffffffffffffffffffffff166108fc829081150290604051600060405180830381858888f19350505050158015610165573d6000803e3d6000fd5b503373ffffffffffffffffffffffffffffffffffffffff167f7fcf532c15f0a6db0bd6d0e038bea71d30d808c7d98cb3bf7268a95bf5081b65826040516101ac9190610297565b60405180910390a250565b60008054906101000a900473ffffffffffffffffffffffffffffffffffffffff1673ffffffffffffffffffffffffffffffffffffffff163373ffffffffffffffffffffffffffffffffffffffff1614610245576040517f08c379a000000000000000000000000000000000000000000000000000000000815260040161023c90610425565b60405180910390fd5b60008054906101000a900473ffffffffffffffffffffffffffffffffffffffff1673ffffffffffffffffffffffffffffffffffffffff16ff5b6000819050919050565b6102918161027e565b82525050565b60006020820190506102ac6000830184610288565b92915050565b600080fd5b6102c08161027e565b81146102cb57600080fd5b50565b6000813590506102dd816102b7565b92915050565b6000602082840312156102f9576102f86102b2565b5b6000610307848285016102ce565b91505092915050565b600082825260208201905092915050565b7f496e73756666696369656e742062616c616e636520696e20666175636574206660008201527f6f72207769746864726177616c20726571756573740000000000000000000000602082015250565b600061037d603583610310565b915061038882610321565b604082019050919050565b600060208201905081810360008301526103ac81610370565b9050919050565b7f4f6e6c792074686520636f6e7472616374206f776e65722063616e2063616c6c60008201527f20746869732066756e6374696f6e000000000000000000000000000000000000602082015250565b600061040f602e83610310565b915061041a826103b3565b604082019050919050565b6000602082019050818103600083015261043e81610402565b905091905056fea264697066735822122060b1eecabe8c204662807799e31cfbffe2c4c3f5b26d2ce460bc11ad8f110da264736f6c634300080b0033",
  "immutableReferences": {},
  "source": "// Version of Solidity compiler this program was written for\npragma solidity ^0.8.11;\n\ncontract owned {\n\taddress owner;\n\t// Contract constructor: set owner\n\tconstructor() {\n\t\towner = payable(msg.sender);\n\t}\n\t// Access control modifier\n\tmodifier onlyOwner {\n\t    require(msg.sender == owner, \"Only the contract owner can call this function\");\n\t    _;\n\t}\n}\n\ncontract mortal is owned {\n\t// Contract destructor\n\tfunction destroy() public onlyOwner {\n\t\tselfdestruct(payable(owner));\n\t}\n}\n\ncontract Faucet is mortal {\n\tevent Withdrawal(address indexed to, uint amount);\n\tevent Deposit(address indexed from, uint amount);\n\n    // Give out ether to anyone who asks\n    function withdraw(uint withdraw_amount) public {\n        // Limit withdrawal amount\n\t\trequire(withdraw_amount <= 0.1 ether);\n\t\trequire(payable(this).balance >= withdraw_amount, //\n\t\t\t\"Insufficient balance in faucet for withdrawal request\");\n        // Send the amount to the address that requested it\n        payable(msg.sender).transfer(withdraw_amount);\n\t\temit Withdrawal(msg.sender, withdraw_amount);\n    }\n    // Accept any incoming amount\n    receive () external payable { //\n\t\temit Deposit(msg.sender, msg.value);\n\t}\n}\n",
  "sourcePath": "/Users/woojinjeong/Documents/GitHub/ethereumbook-v-0.8.11-/code_v/truffle/FaucetEvents/contracts/Faucet.sol",
  "compiler": {
    "name": "solc",
    "version": "0.8.11+commit.d7f03943.Emscripten.clang"
  },
  "schemaVersion": "3.4.4",
  "updatedAt": "2022-02-16T10:57:14.672Z",
  "networkType": "ethereum",
  "devdoc": {
    "kind": "dev",
    "methods": {},
    "version": 1
  },
  "userdoc": {
    "kind": "user",
    "methods": {},
    "version": 1
  }
}